:1000000012C021C020C018C11EC01DC0C0C11BC06D
:100010001AC019C018C017C016C015C0ECC113C053
:1000200012C007C210C011241FBECFE5D4E0DEBF4E
:10003000CDBF20E0A0E6B0E001C01D92A738B20716
:10004000E1F702D050C2DCCFCF93DF9300D000D0D5
:100050001F92CDB7DEB78DEF87BB8FEF88BB81E1F5
:10006000DCD18FED9EE29BBD8ABD8EB588608EBDD2
:1000700089B7806189BF83E683BD85B5886085BD0A
:1000800089B7806889BF85B5826085BD86B1866085
:1000900086B93E9A87B187B9359A379A339A789458
:1000A000369A80E090E0FC01E159FF4F1082E1E0D8
:1000B000F0E0EC0FFD1FE80FF91F1082019685306C
:1000C000910589F72CED35E0309377002093760089
:1000D00088EE93E0909379008093780030937B00D2
:1000E00020937A0090937D0080937C00EFE6F0E00F
:1000F00020E730E00F2EF1E72F2EF0E03F2EF02D1D
:1001000062E770E043E750E00F2EF6E7EF2EF0E0F5
:10011000FF2EF02D08E710E00F2EFAE7AF2EF0E0EB
:10012000BF2EF02D0F2EFCE78F2EF0E09F2EF02D2E
:100130000F2EF4E76F2EF0E07F2EF02D0F2EF5E757
:100140004F2EF0E05F2EF02D8081803109F058C0F5
:10015000D9018C918983D1018C918A83DB018C91A7
:100160008B83DA018C918C83898190E06C01CC0CBB
:10017000DD1C880F991F880F991F880F991F8C0D00
:100180009D1D88519C4FD70111969C938E938A8117
:1001900090E06C01CC0CDD1C880F991F880F991F13
:1001A000880F991F8C0D9D1D88519C4FD801119669
:1001B0009C938E938B8190E06C01CC0CDD1C880F9E
:1001C000991F880F991F880F991F8C0D9D1D8851AD
:1001D0009C4FD50111969C938E938C8190E06C017D
:1001E000CC0CDD1C880F991F880F991F880F991F51
:1001F0008C0D9D1D88519C4FD40111969C938E931C
:100200008081803261F48981D9018C938A81D10106
:100210008C938B81DB018C938C81DA018C938081B0
:10022000813209F091CFD3018C91D9018C93D20105
:100230008C91D1018C9388CF1F920F920FB60F92A1
:1002400011242F938F939F9380916200909163006C
:10025000892BA1F4C29A8091760090917700880F43
:10026000991F880F991F880F991F01979BBD8ABD01
:100270008EB581608EBD81E08093670080916200C1
:10028000909163004997A1F4C39A8091780090916E
:100290007900880F991F880F991F880F991F019760
:1002A0009BBD8ABD8EB581608EBD81E08093680064
:1002B0008091620090916300C297A1F4C49A8091EA
:1002C0007A0090917B00880F991F880F991F880FE3
:1002D000991F01979BBD8ABD8EB581608EBD81E05F
:1002E0008093690080916200909163008B34910546
:1002F000A1F4C59A80917C0090917D00880F991F90
:10030000880F991F880F991F01979BBD8ABD8EB5D5
:1003100081608EBD81E080936A008091620090913F
:1003200063000196883C91052CF4909363008093C0
:10033000620004C01092630010926200809160001D
:1003400090916100892B09F4C09A8091600090918E
:100350006100843F914009F4C098809160009091C1
:1003600061000196883823E192072CF49093610094
:100370008093600004C010926100109260009F9111
:100380008F912F910F900FBE0F901F9018951F9275
:100390000F920FB60F9211248F93809167008823DC
:1003A00031F0C2988EB5887F8EBD10926700809123
:1003B0006800882331F0C3988EB5887F8EBD109277
:1003C000680080916900882331F0C4988EB5887FD9
:1003D0008EBD1092690080916A00882331F0C59823
:1003E0008EB5887F8EBD10926A008F910F900FBEE0
:1003F0000F901F9018951F920F920FB60F92112415
:100400008F9384B18093740085B1809375008F9130
:100410000F900FBE0F901F90189582B986B78F7DF1
:1004200086BF86B7856486BF8FEF809386007894F9
:1004300008951F920F920FB60F9211248F93EF938E
:10044000FF9381B1887F803AD9F138F48038A9F0E0
:100450008838E1F1803661F03CC0883B19F118F42E
:10046000883AF1F036C0803C71F1883C79F131C0B6
:1004700085EC86BF109286002EC080918600863063
:1004800038F4E0918600F0E083B1E159FF4F8083BA
:10049000809186008F5F8093860085EC86BF1BC0AD
:1004A00010928600E091860081E08E0F8093860096
:1004B000F0E0E159FF4F808183B985EC86BF0BC026
:1004C00085EC86BF08C085EC86BF05C080E986BF85
:1004D00002C085EC86BFFF91EF918F910F900FBE08
:0A04E0000F901F901895F894FFCFBD
:00000001FF
